:100000009CC00000B5C00000B3C00000B1C000003B
:10001000AFC00000ADC00000ABC00000A9C0000030
:10002000A7C00000A5C00000D1C40000A1C000000E
:100030009FC000009DC000009BC0000099C0000050
:1000400097C0000095C0000093C0000091C0000060
:100050008FC000008DC000008BC0000089C0000070
:1000600087C0000085C0000083C0000081C0000080
:100070007FC000007DC000007BC0000079C0000090
:1000800077C0000075C0000073C0000071C00000A0
:100090001FC200006DC000006BC0000069C00000FE
:1000A00067C0000065C0000063C000002A0355005F
:1000B00053004200200052006500740072006F007F
:1000C0005000610064002000410064006100700085
:1000D00074006500720000002A0377007700770043
:1000E0002E006200720075006E006F0066007200E4
:1000F000650069007400610073002E0063006F00EA
:100100006D000000040309040902200001010080C1
:100110003209040000025842000007058203200053
:100120000407050203080004120110010000000882
:100130005E04020200010000000111241FBECFEF87
:10014000DAE0DEBFCDBF11E0A0E0B1E0EEE5FEE019
:1001500002C005900D92A230B107D9F721E0A2E0CC
:10016000B1E001C01D92AB34B207E1F7B6D075C65D
:1001700047CF809111018093BB00089579D1809180
:1001800012012FEF829FC0011124905890932701F4
:1001900080932601809113012FEF829FC0011124CB
:1001A00090589093290180932801809114012FEF9A
:1001B000829FC0011124905890932B0180932A01B3
:1001C000809115012FEF829FC001112490589093C8
:1001D0002D0180932C018091160180932401809140
:1001E0001701809325018091190180931C01809152
:1001F000180180FF04C08FEF8093230102C010928A
:1002000023018091180181FF04C08FEF80932201A8
:1002100002C0109222018091180184FF04C08FEF68
:1002200080931E0102C010921E018091180185FF6B
:1002300004C08FEF80931F0102C010921F018091B4
:10024000180186FF04C08FEF8093200102C0109236
:1002500020018091180187FF04C08FEF8093210156
:1002600002C01092210102C1809311019FEF98B941
:10027000843629F4109204011092030117C02091D2
:10028000030130910401283031053CF4E091030171
:10029000F0910401EE5EFE4F808380910301909106
:1002A000040101969093040180930301809103015E
:1002B00090910401089719F48FEF88B95FCF0895E2
:1002C0008FEF87B918B888E0FAD069EB70E084E363
:1002D00091E0ECD08FEF88B9FECFE1E6F0E080E866
:1002E0008083108285B7806885BF85B7806885BFA9
:1002F00081E0C0D0E5DF292F33272230310559F0C6
:100300002330310569F021303105E9F482E190E0D4
:1003100028E231E01CC080E290E028E031E017C024
:1003200099278130910549F028F0029761F4ECEAB1
:10033000F0E005C0E4E0F1E002C0E8EDF0E0849117
:1003400090E09F0104C080E090E020E030E0FA01FE
:10035000318320830895E0910701F09108013097DF
:1003600009F009940895E0910501F0910601309794
:1003700009F00994089542E261EC82E01AC280918A
:10038000440190914301813091F4913A81F580913B
:10039000E800877F8093E80064E170E08AE191E003
:1003A00023D18091E8008B778093E8000895913CF9
:1003B000F1F48630E1F48091E800877F8093E800D3
:1003C00060E170E08EE291E00FD18091E8008B77E0
:1003D0008093E80081E090E090930C0180930B0102
:1003E000E0910901F0910A01309709F0099408950C
:1003F00080914201843099F482E08093E9008091F9
:10040000E80080FF0CC040E050E064E170E08AE169
:1004100091E0A0D08091E8008E778093E800089565
:1004200084E2EAE1F1E0DF011D928A95E9F784E1D7
:1004300080931B0190E190932E0192E490932F0101
:1004400091E0909331019093320192E090933301C7
:100450008093340186E080933501E6E3F1E08FEF8D
:100460008193B1E0EE33FB07D9F70895C1DFDBC418
:10047000A8950895882359F09FE088E10FB6F89475
:10048000A895809360000FBE909360000BC00FB6DC
:10049000F894A89580916000886180936000109224
:1004A00060000FBEBDDF75D278940895909310015F
:1004B00080930F0170930E0160930D010895F894DD
:1004C000880F8093BA0085EC8093BC0078940895DF
:1004D0001F920F920FB60F9211242F933F934F93B9
:1004E0005F936F937F938F939F93AF93BF93EF939C
:1004F000FF938091B900887F803859F028F48111EA
:1005000015C01092BC0012C0883A59F0883B49F0DF
:100510000DC08091BB00E0910F01F0911001099591
:1005200005C0E0910D01F0910E01099585EC8093D5
:10053000BC00FF91EF91BF91AF919F918F917F91FF
:100540006F915F914F913F912F910F900FBE0F9040
:100550001F901895CF92DF92EF92FF920F931F9307
:10056000CF93DF93EC018B017A0177D1811133C0F6
:10057000E114F10439F0F70180819181081B190B16
:10058000C80FD91FC12CD12C0115110519F180916B
:10059000E80085FD16C08091E8008E778093E80022
:1005A00042D4E114F10449F0F70180819181C80E31
:1005B000D91ED182C08285E00EC04FD1882321F39D
:1005C0000AC089918093F10001501109FFEFCF1A01
:1005D000DF0ADACF80E0DF91CF911F910F91FF907A
:1005E000EF90DF90CF9008952091490130914A011A
:1005F0002617370748F06115710539F42091E80096
:100600002E772093E80001C0B901382F492F20E050
:100610006115710509F441C080914201882309F4F4
:100620004FC0853009F44EC08091E80083FD4CC076
:100630008091E80082FD3EC08091E80080FFE8CF15
:100640005091F3002091F200822F90E0952BE32F40
:10065000F42F8E1B9F0BAF01480F591F20910001F3
:100660006115710559F0A22FB0E04A175B0730F40D
:1006700021912093F10061507109EDCF822F90E01C
:1006800021E08417950709F020E08091E8008E773B
:100690008093E8003E2F4F2FBBCF2111BDCF0AC062
:1006A00080914201882361F0853061F08091E800FB
:1006B00083FD0AC08091E80082FFF2CF80E00895B8
:1006C00082E0089583E0089581E008952091490132
:1006D00030914A012617370748F06115710539F442
:1006E0002091E8002E772093E80001C0B901382F4F
:1006F000492F20E06115710509F442C08091420143
:10070000882309F450C0853009F44FC08091E80077
:1007100083FD4DC08091E80082FD3FC08091E800DC
:1007200080FFE8CF5091F3002091F200822F90E0FB
:10073000952BE32FF42F8E1B9F0BAF01480F591FF2
:10074000209100016115710561F0A22FB0E04A17F8
:100750005B0738F424912093F100319661507109C0
:10076000ECCF822F90E021E08417950709F020E07C
:100770008091E8008E778093E8003E2F4F2FBACF0C
:100780002111BCCF0AC080914201882361F08530DD
:1007900061F08091E80083FD0AC08091E80082FF4B
:1007A000F2CF80E0089582E0089583E0089581E02B
:1007B0000895982F973068F59093E900981739F0CD
:1007C0007091EC002091ED005091F00003C0242FB7
:1007D000762F50E021FD02C09F5FECCF3091EB00FF
:1007E0003E7F3093EB003091ED003D7F3093ED0084
:1007F0003091EB0031603093EB007093EC0020936C
:10080000ED005093F0002091EE0027FDE5CF80E051
:1008100008958F708093E90081E0089580914301ED
:1008200087FF11C08091E80082FD05C080914201E0
:100830008111F8CF11C08091E8008B770BC08091B7
:100840004201882349F08091E80080FFF8CF809131
:10085000E8008E778093E80008952091E4003091BD
:10086000E50095E64091EC00842F817040FF23C0A5
:100870008091E80080FD1DC080914201882399F09D
:10088000853099F08091EB0085FD11C04091E40026
:100890005091E5002417350729F3915011F09A0182
:1008A000E1CF84E0089582E0089583E0089581E037
:1008B000089580E008954091E80042FFDDCF08955B
:1008C000CF93DF9300D0CDB7DEB773D07AD08091CD
:1008D000D8008F778093D8008091D800806880936B
:1008E000D8008091D8008F7D8093D80019BC1092D9
:1008F000420110923E011092400110923F01AE0160
:100900004F5F5F4F60E080E091E0F5DC892B31F0D4
:10091000E981FA813796E491E09300018091E0004B
:100920008B7F8093E0008091D80081608093D80015
:100930002091000130E088E090E040E082179307CA
:1009400020F44F5F880F991FF9CF4295407F426096
:1009500060E080E02EDF8091E1008E7F8093E100F7
:100960008091E20081608093E2008091E2008860E3
:100970008093E2008091E0008E7F8093E000809180
:10098000D80080618093D8000F900F90DF91CF91B5
:100990000895E8EDF0E080818F7E8083E7EDF0E060
:1009A00080818160808384E082BF81E08093410107
:1009B00087CFE8EDF0E080818E7F80831092E200A7
:1009C00008951092DA001092E10008951F920F929C
:1009D0000FB60F9211242F933F934F935F936F9312
:1009E0007F938F939F93AF93BF93EF93FF938091E8
:1009F000E10082FF0AC08091E20082FF06C0809180
:100A0000E1008B7F8093E1000DD28091DA0080FFBE
:100A10001DC08091D80080FF19C08091DA008E7FC0
:100A20008093DA008091D90080FF0CC080E189BDFD
:100A300082E189BD09B400FEFDCF81E080934201CF
:100A40008ADC04C019BC109242018DDC8091E10067
:100A500080FF18C08091E20080FF14C08091E20006
:100A60008E7F8093E2008091E20080618093E200BB
:100A70008091D80080628093D80019BC85E0809373
:100A80004201D0D18091E10084FF2FC08091E2002B
:100A900084FF2BC080E189BD82E189BD09B400FEDD
:100AA000FDCF8091D8008F7D8093D8008091E100A8
:100AB0008F7E8093E1008091E2008F7E8093E20040
:100AC0008091E20081608093E20080913E01882362
:100AD00011F084E007C08091E30087FD02C081E04F
:100AE00001C083E0809342019DD18091E10083FFAA
:100AF00031C08091E20083FF2DC08091E100877FAB
:100B00008093E10082E08093420110923E01809147
:100B1000E1008E7F8093E1008091E2008E7F8093E0
:100B2000E2008091E20080618093E2002091000168
:100B300030E088E090E040E08217930720F44F5FB8
:100B4000880F991FF9CF4295407F426060E080E0B6
:100B500030DE68D1FF91EF91BF91AF919F918F915E
:100B60007F916F915F914F913F912F910F900FBEA9
:100B70000F901F9018951F93CF93DF93CDB7DEB7DB
:100B8000AA970FB6F894DEBF0FBECDBFE3E4F1E045
:100B90008091F100819321E0EB34F207C9F7EFDB9C
:100BA0008091E80083FF26C1809143019091440128
:100BB000953009F478C030F4913081F168F09330C9
:100BC00069F118C1983009F4E2C0993009F4F1C014
:100BD000963009F00FC189C0803881F0823809F061
:100BE00009C1809147018F708093E9008091EB00EB
:100BF00085FB882780F91092E90006C080913F01AB
:100C000090914001911182609091E800977F9093BC
:100C1000E8008093F1001092F100C4C0282F2D7FCE
:100C200009F0E8C0882319F0823061F0E3C08091B8
:100C30004501813009F0DEC0933009F080E08093F7
:100C400040012BC080914501811127C0809147014F
:100C50008F7009F4CFC08093E9002091EB0020FF52
:100C60001CC0933021F48091EB00806214C09091FD
:100C7000EB0090619093EB0021E030E0A90102C00D
:100C8000440F551F8A95E2F74093EA001092EA005C
:100C90008091EB0088608093EB001092E9008091D6
:100CA000E800877F82C08111A5C0109145011F77A0
:100CB0008091E3008078812B8093E3008091E800AD
:100CC000877F8093E800AADD8091E80080FFFCCF59
:100CD0008091E30080688093E300111102C082E0FC
:100CE00001C083E08093420185C08058823008F0C3
:100CF00081C080914501909146018C3D53E095075C
:100D000071F583E08A838AE289834FB7F894DE0124
:100D1000139620E03EE051E2E32FF0E050935700BD
:100D2000E49120FF03C0E295EF703F5FEF708E2FDC
:100D300090E0EA3010F0C79601C0C0968D939D9365
:100D40002F5F243149F74FBF8091E800877F809360
:100D5000E8006AE270E0CE01019646DC12C0AE0106
:100D60004F5F5F4F60914701C6DABC01892B09F4E0
:100D700041C09091E800977F9093E80089819A8123
:100D8000A5DC8091E8008B778093E80033C0803841
:100D900089F58091E800877F8093E80080913E018B
:100DA0008093F1008091E8008E778093E80036DD33
:100DB00021C081111FC08091450190914601992762
:100DC0000297C4F48091E800877F8093E8008091C7
:100DD000450180933E0122DD80913E01811106C0D4
:100DE0008091E30087FD02C081E001C084E0809330
:100DF0004201C1DA8091E80083FF0AC08091E800D7
:100E0000877F8093E8008091EB0080628093EB0005
:100E1000AA960FB6F894DEBF0FBECDBFDF91CF917B
:100E20001F9108950895CF9380914201882399F0EE
:100E3000C091E900CF709091EC00892F817090FDF6
:100E400080E8C82B1092E9008091E80083FD93DED2
:0E0E5000CF70C093E900CF910895F894FFCFC2
:020E5E0008008A
:00000001FF
